{
  "_format": "hh-sol-artifact-1",
  "contractName": "WavePortal",
  "sourceName": "contracts/WavePortal.sol",
  "abi": [
    {
      "inputs": [],
      "stateMutability": "payable",
      "type": "constructor"
    },
    {
      "anonymous": false,
      "inputs": [
        {
          "indexed": true,
          "internalType": "address",
          "name": "from",
          "type": "address"
        },
        {
          "indexed": false,
          "internalType": "uint256",
          "name": "timestamp",
          "type": "uint256"
        },
        {
          "indexed": false,
          "internalType": "string",
          "name": "message",
          "type": "string"
        },
        {
          "indexed": false,
          "internalType": "string",
          "name": "account",
          "type": "string"
        },
        {
          "indexed": false,
          "internalType": "string",
          "name": "keyword",
          "type": "string"
        }
      ],
      "name": "NewWave",
      "type": "event"
    },
    {
      "inputs": [],
      "name": "getAllWaves",
      "outputs": [
        {
          "components": [
            {
              "internalType": "address",
              "name": "waver",
              "type": "address"
            },
            {
              "internalType": "string",
              "name": "message",
              "type": "string"
            },
            {
              "internalType": "uint256",
              "name": "timestamp",
              "type": "uint256"
            },
            {
              "internalType": "string",
              "name": "account",
              "type": "string"
            },
            {
              "internalType": "string",
              "name": "keyword",
              "type": "string"
            }
          ],
          "internalType": "struct WavePortal.Wave[]",
          "name": "",
          "type": "tuple[]"
        }
      ],
      "stateMutability": "view",
      "type": "function"
    },
    {
      "inputs": [],
      "name": "getTotalWaves",
      "outputs": [
        {
          "internalType": "uint256",
          "name": "",
          "type": "uint256"
        }
      ],
      "stateMutability": "view",
      "type": "function"
    },
    {
      "inputs": [
        {
          "internalType": "address",
          "name": "",
          "type": "address"
        }
      ],
      "name": "lastWavedAt",
      "outputs": [
        {
          "internalType": "uint256",
          "name": "",
          "type": "uint256"
        }
      ],
      "stateMutability": "view",
      "type": "function"
    },
    {
      "inputs": [
        {
          "internalType": "string",
          "name": "_message",
          "type": "string"
        },
        {
          "internalType": "string",
          "name": "account",
          "type": "string"
        },
        {
          "internalType": "string",
          "name": "keyword",
          "type": "string"
        }
      ],
      "name": "wave",
      "outputs": [],
      "stateMutability": "nonpayable",
      "type": "function"
    }
  ],
  "bytecode": "0x60806040526200004f6040518060400160405280601981526020017f54686973206973206d7920666972737420636f6e7472616374000000000000008152506200007760201b620007741760201c565b606444426200005f9190620001c4565b6200006b919062000261565b60018190555062000308565b62000117816040516024016200008e919062000184565b6040516020818303038152906040527f41304fac000000000000000000000000000000000000000000000000000000007bffffffffffffffffffffffffffffffffffffffffffffffffffffffff19166020820180517bffffffffffffffffffffffffffffffffffffffffffffffffffffffff83818316178352505050506200011a60201b60201c565b50565b60008151905060006a636f6e736f6c652e6c6f679050602083016000808483855afa5050505050565b60006200015082620001a8565b6200015c8185620001b3565b93506200016e8185602086016200022b565b6200017981620002f7565b840191505092915050565b60006020820190508181036000830152620001a0818462000143565b905092915050565b600081519050919050565b600082825260208201905092915050565b6000620001d18262000221565b9150620001de8362000221565b9250827fffffffffffffffffffffffffffffffffffffffffffffffffffffffffffffffff0382111562000216576200021562000299565b5b828201905092915050565b6000819050919050565b60005b838110156200024b5780820151818401526020810190506200022e565b838111156200025b576000848401525b50505050565b60006200026e8262000221565b91506200027b8362000221565b9250826200028e576200028d620002c8565b5b828206905092915050565b7f4e487b7100000000000000000000000000000000000000000000000000000000600052601160045260246000fd5b7f4e487b7100000000000000000000000000000000000000000000000000000000600052601260045260246000fd5b6000601f19601f8301169050919050565b6111ee80620003186000396000f3fe608060405234801561001057600080fd5b506004361061004c5760003560e01c8063689a3257146100515780639a2cdc081461006d578063a42a46631461008b578063bd43a908146100bb575b600080fd5b61006b60048036038101906100669190610a1b565b6100d9565b005b6100756104de565b6040516100829190610e56565b60405180910390f35b6100a560048036038101906100a091906109f2565b6104e7565b6040516100b29190610e56565b60405180910390f35b6100c36104ff565b6040516100d09190610d82565b60405180910390f35b42601e600360003373ffffffffffffffffffffffffffffffffffffffff1673ffffffffffffffffffffffffffffffffffffffff168152602001908152602001600020546101269190610f9d565b10610166576040517f08c379a000000000000000000000000000000000000000000000000000000000815260040161015d90610e16565b60405180910390fd5b42600360003373ffffffffffffffffffffffffffffffffffffffff1673ffffffffffffffffffffffffffffffffffffffff1681526020019081526020016000208190555060016000808282546101bc9190610f9d565b925050819055506102026040518060400160405280600d81526020017f25732068617320776176656421000000000000000000000000000000000000008152503361080d565b60026040518060a001604052803373ffffffffffffffffffffffffffffffffffffffff16815260200185815260200142815260200184815260200183815250908060018154018082558091505060019003906000526020600020906005020160009091909190915060008201518160000160006101000a81548173ffffffffffffffffffffffffffffffffffffffff021916908373ffffffffffffffffffffffffffffffffffffffff16021790555060208201518160010190805190602001906102cd9291906108d2565b506040820151816002015560608201518160030190805190602001906102f49291906108d2565b5060808201518160040190805190602001906103119291906108d2565b505050606460015442446103259190610f9d565b61032f9190610f9d565b61033991906110a3565b600181905550603260015411610485576103886040518060400160405280601581526020017f25732068617320776f6e20746865207072697a652100000000000000000000008152503361080d565b6000655af3107a40009050478111156103d6576040517f08c379a00000000000000000000000000000000000000000000000000000000081526004016103cd90610df6565b60405180910390fd5b60003373ffffffffffffffffffffffffffffffffffffffff16826040516103fc90610d6d565b60006040518083038185875af1925050503d8060008114610439576040519150601f19603f3d011682016040523d82523d6000602084013e61043e565b606091505b5050905080610482576040517f08c379a000000000000000000000000000000000000000000000000000000000815260040161047990610e36565b60405180910390fd5b50505b3373ffffffffffffffffffffffffffffffffffffffff167f4346ad46b072a60ecf544339308b4568307c2137cd603e37c9b592e773e56909428585856040516104d19493929190610e71565b60405180910390a2505050565b60008054905090565b60036020528060005260406000206000915090505481565b60606002805480602002602001604051908101604052809291908181526020016000905b8282101561076b57838290600052602060002090600502016040518060a00160405290816000820160009054906101000a900473ffffffffffffffffffffffffffffffffffffffff1673ffffffffffffffffffffffffffffffffffffffff1673ffffffffffffffffffffffffffffffffffffffff1681526020016001820180546105ac90611071565b80601f01602080910402602001604051908101604052809291908181526020018280546105d890611071565b80156106255780601f106105fa57610100808354040283529160200191610625565b820191906000526020600020905b81548152906001019060200180831161060857829003601f168201915b505050505081526020016002820154815260200160038201805461064890611071565b80601f016020809104026020016040519081016040528092919081815260200182805461067490611071565b80156106c15780601f10610696576101008083540402835291602001916106c1565b820191906000526020600020905b8154815290600101906020018083116106a457829003601f168201915b505050505081526020016004820180546106da90611071565b80601f016020809104026020016040519081016040528092919081815260200182805461070690611071565b80156107535780601f1061072857610100808354040283529160200191610753565b820191906000526020600020905b81548152906001019060200180831161073657829003601f168201915b50505050508152505081526020019060010190610523565b50505050905090565b61080a816040516024016107889190610da4565b6040516020818303038152906040527f41304fac000000000000000000000000000000000000000000000000000000007bffffffffffffffffffffffffffffffffffffffffffffffffffffffff19166020820180517bffffffffffffffffffffffffffffffffffffffffffffffffffffffff83818316178352505050506108a9565b50565b6108a58282604051602401610823929190610dc6565b6040516020818303038152906040527f319af333000000000000000000000000000000000000000000000000000000007bffffffffffffffffffffffffffffffffffffffffffffffffffffffff19166020820180517bffffffffffffffffffffffffffffffffffffffffffffffffffffffff83818316178352505050506108a9565b5050565b60008151905060006a636f6e736f6c652e6c6f679050602083016000808483855afa5050505050565b8280546108de90611071565b90600052602060002090601f0160209004810192826109005760008555610947565b82601f1061091957805160ff1916838001178555610947565b82800160010185558215610947579182015b8281111561094657825182559160200191906001019061092b565b5b5090506109549190610958565b5090565b5b80821115610971576000816000905550600101610959565b5090565b600061098861098384610efc565b610ecb565b9050828152602081018484840111156109a057600080fd5b6109ab84828561102f565b509392505050565b6000813590506109c2816111a1565b92915050565b600082601f8301126109d957600080fd5b81356109e9848260208601610975565b91505092915050565b600060208284031215610a0457600080fd5b6000610a12848285016109b3565b91505092915050565b600080600060608486031215610a3057600080fd5b600084013567ffffffffffffffff811115610a4a57600080fd5b610a56868287016109c8565b935050602084013567ffffffffffffffff811115610a7357600080fd5b610a7f868287016109c8565b925050604084013567ffffffffffffffff811115610a9c57600080fd5b610aa8868287016109c8565b9150509250925092565b6000610abe8383610ccb565b905092915050565b610acf81610ff3565b82525050565b610ade81610ff3565b82525050565b6000610aef82610f3c565b610af98185610f5f565b935083602082028501610b0b85610f2c565b8060005b85811015610b475784840389528151610b288582610ab2565b9450610b3383610f52565b925060208a01995050600181019050610b0f565b50829750879550505050505092915050565b6000610b6482610f47565b610b6e8185610f7b565b9350610b7e81856020860161103e565b610b8781611190565b840191505092915050565b6000610b9d82610f47565b610ba78185610f8c565b9350610bb781856020860161103e565b610bc081611190565b840191505092915050565b6000610bd8602e83610f8c565b91507f596f7520646f6e2774206861766520656e6f75676820657468657220746f206760008301527f6976652066726565206d6f6e65790000000000000000000000000000000000006020830152604082019050919050565b6000610c3e601683610f8c565b91507f576169742033307320746f207761766520616761696e000000000000000000006000830152602082019050919050565b6000610c7e601883610f8c565b91507f4661696c656420746f20776974686472617720657468657200000000000000006000830152602082019050919050565b6000610cbe600083610f70565b9150600082019050919050565b600060a083016000830151610ce36000860182610ac6565b5060208301518482036020860152610cfb8282610b59565b9150506040830151610d106040860182610d4f565b5060608301518482036060860152610d288282610b59565b91505060808301518482036080860152610d428282610b59565b9150508091505092915050565b610d5881611025565b82525050565b610d6781611025565b82525050565b6000610d7882610cb1565b9150819050919050565b60006020820190508181036000830152610d9c8184610ae4565b905092915050565b60006020820190508181036000830152610dbe8184610b92565b905092915050565b60006040820190508181036000830152610de08185610b92565b9050610def6020830184610ad5565b9392505050565b60006020820190508181036000830152610e0f81610bcb565b9050919050565b60006020820190508181036000830152610e2f81610c31565b9050919050565b60006020820190508181036000830152610e4f81610c71565b9050919050565b6000602082019050610e6b6000830184610d5e565b92915050565b6000608082019050610e866000830187610d5e565b8181036020830152610e988186610b92565b90508181036040830152610eac8185610b92565b90508181036060830152610ec08184610b92565b905095945050505050565b6000604051905081810181811067ffffffffffffffff82111715610ef257610ef1611161565b5b8060405250919050565b600067ffffffffffffffff821115610f1757610f16611161565b5b601f19601f8301169050602081019050919050565b6000819050602082019050919050565b600081519050919050565b600081519050919050565b6000602082019050919050565b600082825260208201905092915050565b600081905092915050565b600082825260208201905092915050565b600082825260208201905092915050565b6000610fa882611025565b9150610fb383611025565b9250827fffffffffffffffffffffffffffffffffffffffffffffffffffffffffffffffff03821115610fe857610fe76110d4565b5b828201905092915050565b6000610ffe82611005565b9050919050565b600073ffffffffffffffffffffffffffffffffffffffff82169050919050565b6000819050919050565b82818337600083830152505050565b60005b8381101561105c578082015181840152602081019050611041565b8381111561106b576000848401525b50505050565b6000600282049050600182168061108957607f821691505b6020821081141561109d5761109c611132565b5b50919050565b60006110ae82611025565b91506110b983611025565b9250826110c9576110c8611103565b5b828206905092915050565b7f4e487b7100000000000000000000000000000000000000000000000000000000600052601160045260246000fd5b7f4e487b7100000000000000000000000000000000000000000000000000000000600052601260045260246000fd5b7f4e487b7100000000000000000000000000000000000000000000000000000000600052602260045260246000fd5b7f4e487b7100000000000000000000000000000000000000000000000000000000600052604160045260246000fd5b6000601f19601f8301169050919050565b6111aa81610ff3565b81146111b557600080fd5b5056fea264697066735822122050d7c56189d075c7945a26e3f5cac2eed7db95b5df0b599e58f2bf363698ccfe64736f6c63430008000033",
  "linkReferences": {},
  "deployedLinkReferences": {}
}