{
  "_format": "hh-sol-artifact-1",
  "contractName": "WavePortal",
  "sourceName": "contracts/WavePortal.sol",
  "abi": [
    {
      "inputs": [],
      "stateMutability": "payable",
      "type": "constructor"
    },
    {
      "anonymous": false,
      "inputs": [
        {
          "indexed": true,
          "internalType": "address",
          "name": "from",
          "type": "address"
        },
        {
          "indexed": false,
          "internalType": "uint256",
          "name": "timestamp",
          "type": "uint256"
        },
        {
          "indexed": false,
          "internalType": "string",
          "name": "message",
          "type": "string"
        },
        {
          "indexed": false,
          "internalType": "string",
          "name": "account",
          "type": "string"
        }
      ],
      "name": "NewWave",
      "type": "event"
    },
    {
      "inputs": [],
      "name": "getAllWaves",
      "outputs": [
        {
          "components": [
            {
              "internalType": "address",
              "name": "waver",
              "type": "address"
            },
            {
              "internalType": "string",
              "name": "message",
              "type": "string"
            },
            {
              "internalType": "uint256",
              "name": "timestamp",
              "type": "uint256"
            },
            {
              "internalType": "string",
              "name": "account",
              "type": "string"
            }
          ],
          "internalType": "struct WavePortal.Wave[]",
          "name": "",
          "type": "tuple[]"
        }
      ],
      "stateMutability": "view",
      "type": "function"
    },
    {
      "inputs": [],
      "name": "getTotalWaves",
      "outputs": [
        {
          "internalType": "uint256",
          "name": "",
          "type": "uint256"
        }
      ],
      "stateMutability": "view",
      "type": "function"
    },
    {
      "inputs": [
        {
          "internalType": "address",
          "name": "",
          "type": "address"
        }
      ],
      "name": "lastWavedAt",
      "outputs": [
        {
          "internalType": "uint256",
          "name": "",
          "type": "uint256"
        }
      ],
      "stateMutability": "view",
      "type": "function"
    },
    {
      "inputs": [
        {
          "internalType": "string",
          "name": "_message",
          "type": "string"
        },
        {
          "internalType": "string",
          "name": "account",
          "type": "string"
        }
      ],
      "name": "wave",
      "outputs": [],
      "stateMutability": "nonpayable",
      "type": "function"
    }
  ],
  "bytecode": "0x60806040526200004f6040518060400160405280601981526020017f54686973206973206d7920666972737420636f6e7472616374000000000000008152506200007760201b620006bc1760201c565b606444426200005f9190620001c4565b6200006b919062000261565b60018190555062000308565b62000117816040516024016200008e919062000184565b6040516020818303038152906040527f41304fac000000000000000000000000000000000000000000000000000000007bffffffffffffffffffffffffffffffffffffffffffffffffffffffff19166020820180517bffffffffffffffffffffffffffffffffffffffffffffffffffffffff83818316178352505050506200011a60201b60201c565b50565b60008151905060006a636f6e736f6c652e6c6f679050602083016000808483855afa5050505050565b60006200015082620001a8565b6200015c8185620001b3565b93506200016e8185602086016200022b565b6200017981620002f7565b840191505092915050565b60006020820190508181036000830152620001a0818462000143565b905092915050565b600081519050919050565b600082825260208201905092915050565b6000620001d18262000221565b9150620001de8362000221565b9250827fffffffffffffffffffffffffffffffffffffffffffffffffffffffffffffffff0382111562000216576200021562000299565b5b828201905092915050565b6000819050919050565b60005b838110156200024b5780820151818401526020810190506200022e565b838111156200025b576000848401525b50505050565b60006200026e8262000221565b91506200027b8362000221565b9250826200028e576200028d620002c8565b5b828206905092915050565b7f4e487b7100000000000000000000000000000000000000000000000000000000600052601160045260246000fd5b7f4e487b7100000000000000000000000000000000000000000000000000000000600052601260045260246000fd5b6000601f19601f8301169050919050565b6110dc80620003186000396000f3fe608060405234801561001057600080fd5b506004361061004c5760003560e01c806351872959146100515780639a2cdc081461006d578063a42a46631461008b578063bd43a908146100bb575b600080fd5b61006b60048036038101906100669190610963565b6100d9565b005b6100756104b8565b6040516100829190610d59565b60405180910390f35b6100a560048036038101906100a0919061093a565b6104c1565b6040516100b29190610d59565b60405180910390f35b6100c36104d9565b6040516100d09190610c85565b60405180910390f35b42601e600360003373ffffffffffffffffffffffffffffffffffffffff1673ffffffffffffffffffffffffffffffffffffffff168152602001908152602001600020546101269190610e8b565b10610166576040517f08c379a000000000000000000000000000000000000000000000000000000000815260040161015d90610d19565b60405180910390fd5b42600360003373ffffffffffffffffffffffffffffffffffffffff1673ffffffffffffffffffffffffffffffffffffffff1681526020019081526020016000208190555060016000808282546101bc9190610e8b565b925050819055506102026040518060400160405280600d81526020017f257320686173207761766564210000000000000000000000000000000000000081525033610755565b600260405180608001604052803373ffffffffffffffffffffffffffffffffffffffff16815260200184815260200142815260200183815250908060018154018082558091505060019003906000526020600020906004020160009091909190915060008201518160000160006101000a81548173ffffffffffffffffffffffffffffffffffffffff021916908373ffffffffffffffffffffffffffffffffffffffff16021790555060208201518160010190805190602001906102c792919061081a565b506040820151816002015560608201518160030190805190602001906102ee92919061081a565b505050606460015442446103029190610e8b565b61030c9190610e8b565b6103169190610f91565b600181905550603260015411610462576103656040518060400160405280601581526020017f25732068617320776f6e20746865207072697a6521000000000000000000000081525033610755565b6000655af3107a40009050478111156103b3576040517f08c379a00000000000000000000000000000000000000000000000000000000081526004016103aa90610cf9565b60405180910390fd5b60003373ffffffffffffffffffffffffffffffffffffffff16826040516103d990610c70565b60006040518083038185875af1925050503d8060008114610416576040519150601f19603f3d011682016040523d82523d6000602084013e61041b565b606091505b505090508061045f576040517f08c379a000000000000000000000000000000000000000000000000000000000815260040161045690610d39565b60405180910390fd5b50505b3373ffffffffffffffffffffffffffffffffffffffff167f0646f10b0148fe8db9a43af10b6956b53e1478c47afc7132c17e243449dfd3394284846040516104ac93929190610d74565b60405180910390a25050565b60008054905090565b60036020528060005260406000206000915090505481565b60606002805480602002602001604051908101604052809291908181526020016000905b828210156106b357838290600052602060002090600402016040518060800160405290816000820160009054906101000a900473ffffffffffffffffffffffffffffffffffffffff1673ffffffffffffffffffffffffffffffffffffffff1673ffffffffffffffffffffffffffffffffffffffff16815260200160018201805461058690610f5f565b80601f01602080910402602001604051908101604052809291908181526020018280546105b290610f5f565b80156105ff5780601f106105d4576101008083540402835291602001916105ff565b820191906000526020600020905b8154815290600101906020018083116105e257829003601f168201915b505050505081526020016002820154815260200160038201805461062290610f5f565b80601f016020809104026020016040519081016040528092919081815260200182805461064e90610f5f565b801561069b5780601f106106705761010080835404028352916020019161069b565b820191906000526020600020905b81548152906001019060200180831161067e57829003601f168201915b505050505081525050815260200190600101906104fd565b50505050905090565b610752816040516024016106d09190610ca7565b6040516020818303038152906040527f41304fac000000000000000000000000000000000000000000000000000000007bffffffffffffffffffffffffffffffffffffffffffffffffffffffff19166020820180517bffffffffffffffffffffffffffffffffffffffffffffffffffffffff83818316178352505050506107f1565b50565b6107ed828260405160240161076b929190610cc9565b6040516020818303038152906040527f319af333000000000000000000000000000000000000000000000000000000007bffffffffffffffffffffffffffffffffffffffffffffffffffffffff19166020820180517bffffffffffffffffffffffffffffffffffffffffffffffffffffffff83818316178352505050506107f1565b5050565b60008151905060006a636f6e736f6c652e6c6f679050602083016000808483855afa5050505050565b82805461082690610f5f565b90600052602060002090601f016020900481019282610848576000855561088f565b82601f1061086157805160ff191683800117855561088f565b8280016001018555821561088f579182015b8281111561088e578251825591602001919060010190610873565b5b50905061089c91906108a0565b5090565b5b808211156108b95760008160009055506001016108a1565b5090565b60006108d06108cb84610dea565b610db9565b9050828152602081018484840111156108e857600080fd5b6108f3848285610f1d565b509392505050565b60008135905061090a8161108f565b92915050565b600082601f83011261092157600080fd5b81356109318482602086016108bd565b91505092915050565b60006020828403121561094c57600080fd5b600061095a848285016108fb565b91505092915050565b6000806040838503121561097657600080fd5b600083013567ffffffffffffffff81111561099057600080fd5b61099c85828601610910565b925050602083013567ffffffffffffffff8111156109b957600080fd5b6109c585828601610910565b9150509250929050565b60006109db8383610be8565b905092915050565b6109ec81610ee1565b82525050565b6109fb81610ee1565b82525050565b6000610a0c82610e2a565b610a168185610e4d565b935083602082028501610a2885610e1a565b8060005b85811015610a645784840389528151610a4585826109cf565b9450610a5083610e40565b925060208a01995050600181019050610a2c565b50829750879550505050505092915050565b6000610a8182610e35565b610a8b8185610e69565b9350610a9b818560208601610f2c565b610aa48161107e565b840191505092915050565b6000610aba82610e35565b610ac48185610e7a565b9350610ad4818560208601610f2c565b610add8161107e565b840191505092915050565b6000610af5602e83610e7a565b91507f596f7520646f6e2774206861766520656e6f75676820657468657220746f206760008301527f6976652066726565206d6f6e65790000000000000000000000000000000000006020830152604082019050919050565b6000610b5b601683610e7a565b91507f576169742033307320746f207761766520616761696e000000000000000000006000830152602082019050919050565b6000610b9b601883610e7a565b91507f4661696c656420746f20776974686472617720657468657200000000000000006000830152602082019050919050565b6000610bdb600083610e5e565b9150600082019050919050565b6000608083016000830151610c0060008601826109e3565b5060208301518482036020860152610c188282610a76565b9150506040830151610c2d6040860182610c52565b5060608301518482036060860152610c458282610a76565b9150508091505092915050565b610c5b81610f13565b82525050565b610c6a81610f13565b82525050565b6000610c7b82610bce565b9150819050919050565b60006020820190508181036000830152610c9f8184610a01565b905092915050565b60006020820190508181036000830152610cc18184610aaf565b905092915050565b60006040820190508181036000830152610ce38185610aaf565b9050610cf260208301846109f2565b9392505050565b60006020820190508181036000830152610d1281610ae8565b9050919050565b60006020820190508181036000830152610d3281610b4e565b9050919050565b60006020820190508181036000830152610d5281610b8e565b9050919050565b6000602082019050610d6e6000830184610c61565b92915050565b6000606082019050610d896000830186610c61565b8181036020830152610d9b8185610aaf565b90508181036040830152610daf8184610aaf565b9050949350505050565b6000604051905081810181811067ffffffffffffffff82111715610de057610ddf61104f565b5b8060405250919050565b600067ffffffffffffffff821115610e0557610e0461104f565b5b601f19601f8301169050602081019050919050565b6000819050602082019050919050565b600081519050919050565b600081519050919050565b6000602082019050919050565b600082825260208201905092915050565b600081905092915050565b600082825260208201905092915050565b600082825260208201905092915050565b6000610e9682610f13565b9150610ea183610f13565b9250827fffffffffffffffffffffffffffffffffffffffffffffffffffffffffffffffff03821115610ed657610ed5610fc2565b5b828201905092915050565b6000610eec82610ef3565b9050919050565b600073ffffffffffffffffffffffffffffffffffffffff82169050919050565b6000819050919050565b82818337600083830152505050565b60005b83811015610f4a578082015181840152602081019050610f2f565b83811115610f59576000848401525b50505050565b60006002820490506001821680610f7757607f821691505b60208210811415610f8b57610f8a611020565b5b50919050565b6000610f9c82610f13565b9150610fa783610f13565b925082610fb757610fb6610ff1565b5b828206905092915050565b7f4e487b7100000000000000000000000000000000000000000000000000000000600052601160045260246000fd5b7f4e487b7100000000000000000000000000000000000000000000000000000000600052601260045260246000fd5b7f4e487b7100000000000000000000000000000000000000000000000000000000600052602260045260246000fd5b7f4e487b7100000000000000000000000000000000000000000000000000000000600052604160045260246000fd5b6000601f19601f8301169050919050565b61109881610ee1565b81146110a357600080fd5b5056fea264697066735822122037c88a7c93b87402a129e87fec4347dc84488290e1bd1295656aa4df1501c23f64736f6c63430008000033",
  "linkReferences": {},
  "deployedLinkReferences": {}
}